{
  "address": "0x8241c5551028C4F9fD3A221f35a5C3320Fe0bfeC",
  "abi": [
    {
      "inputs": [
        {
          "internalType": "string",
          "name": "_firstQuestion",
          "type": "string"
        },
        {
          "internalType": "string",
          "name": "_encryptedAnswer",
          "type": "string"
        },
        {
          "internalType": "address",
          "name": "_usdtContractAddress",
          "type": "address"
        },
        {
          "internalType": "uint8",
          "name": "_tokenDecimal",
          "type": "uint8"
        }
      ],
      "stateMutability": "nonpayable",
      "type": "constructor"
    },
    {
      "inputs": [],
      "name": "NotAnswerTime",
      "type": "error"
    },
    {
      "anonymous": false,
      "inputs": [
        {
          "indexed": true,
          "internalType": "uint24",
          "name": "roundId",
          "type": "uint24"
        },
        {
          "indexed": true,
          "internalType": "address",
          "name": "respondent",
          "type": "address"
        },
        {
          "indexed": false,
          "internalType": "string",
          "name": "answer",
          "type": "string"
        }
      ],
      "name": "AnswerSubmitted",
      "type": "event"
    },
    {
      "anonymous": false,
      "inputs": [
        {
          "indexed": true,
          "internalType": "uint24",
          "name": "roundId",
          "type": "uint24"
        },
        {
          "components": [
            {
              "internalType": "string",
              "name": "question",
              "type": "string"
            },
            {
              "internalType": "string",
              "name": "encryptedAnswer",
              "type": "string"
            },
            {
              "internalType": "uint24",
              "name": "attendance",
              "type": "uint24"
            },
            {
              "internalType": "string",
              "name": "answer",
              "type": "string"
            },
            {
              "internalType": "uint256",
              "name": "prize",
              "type": "uint256"
            },
            {
              "internalType": "bool",
              "name": "platformFeeTransferred",
              "type": "bool"
            }
          ],
          "indexed": false,
          "internalType": "struct DailyPool.RoundInfo",
          "name": "roundInfo",
          "type": "tuple"
        },
        {
          "indexed": true,
          "internalType": "uint256",
          "name": "startTimestamp",
          "type": "uint256"
        }
      ],
      "name": "NewRoundOpened",
      "type": "event"
    },
    {
      "anonymous": false,
      "inputs": [
        {
          "indexed": true,
          "internalType": "address",
          "name": "previousOwner",
          "type": "address"
        },
        {
          "indexed": true,
          "internalType": "address",
          "name": "newOwner",
          "type": "address"
        }
      ],
      "name": "OwnershipTransferred",
      "type": "event"
    },
    {
      "anonymous": false,
      "inputs": [
        {
          "indexed": true,
          "internalType": "uint256",
          "name": "amount",
          "type": "uint256"
        }
      ],
      "name": "PlatformFeeTransferred",
      "type": "event"
    },
    {
      "anonymous": false,
      "inputs": [
        {
          "indexed": true,
          "internalType": "uint24",
          "name": "roundId",
          "type": "uint24"
        },
        {
          "indexed": true,
          "internalType": "address",
          "name": "winner",
          "type": "address"
        },
        {
          "indexed": true,
          "internalType": "uint256",
          "name": "prize",
          "type": "uint256"
        }
      ],
      "name": "PrizeClaimed",
      "type": "event"
    },
    {
      "inputs": [
        {
          "internalType": "bytes",
          "name": "signature",
          "type": "bytes"
        },
        {
          "internalType": "enum DailyPool.RANK",
          "name": "_rank",
          "type": "uint8"
        },
        {
          "internalType": "uint24",
          "name": "_players",
          "type": "uint24"
        }
      ],
      "name": "claimPrize",
      "outputs": [],
      "stateMutability": "nonpayable",
      "type": "function"
    },
    {
      "inputs": [],
      "name": "currentRoundId",
      "outputs": [
        {
          "internalType": "uint24",
          "name": "",
          "type": "uint24"
        }
      ],
      "stateMutability": "view",
      "type": "function"
    },
    {
      "inputs": [],
      "name": "daoMsigAddress",
      "outputs": [
        {
          "internalType": "address",
          "name": "",
          "type": "address"
        }
      ],
      "stateMutability": "view",
      "type": "function"
    },
    {
      "inputs": [],
      "name": "depositAmount",
      "outputs": [
        {
          "internalType": "uint256",
          "name": "",
          "type": "uint256"
        }
      ],
      "stateMutability": "view",
      "type": "function"
    },
    {
      "inputs": [],
      "name": "donationMsigAddress",
      "outputs": [
        {
          "internalType": "address",
          "name": "",
          "type": "address"
        }
      ],
      "stateMutability": "view",
      "type": "function"
    },
    {
      "inputs": [
        {
          "internalType": "string",
          "name": "_nextQuestion",
          "type": "string"
        },
        {
          "internalType": "string",
          "name": "_encryptedNextAnswer",
          "type": "string"
        },
        {
          "internalType": "string",
          "name": "_answer",
          "type": "string"
        }
      ],
      "name": "executeRound",
      "outputs": [],
      "stateMutability": "nonpayable",
      "type": "function"
    },
    {
      "inputs": [],
      "name": "lockedPoolAmount",
      "outputs": [
        {
          "internalType": "uint256",
          "name": "",
          "type": "uint256"
        }
      ],
      "stateMutability": "view",
      "type": "function"
    },
    {
      "inputs": [],
      "name": "minAttendance",
      "outputs": [
        {
          "internalType": "uint24",
          "name": "",
          "type": "uint24"
        }
      ],
      "stateMutability": "view",
      "type": "function"
    },
    {
      "inputs": [],
      "name": "owner",
      "outputs": [
        {
          "internalType": "address",
          "name": "",
          "type": "address"
        }
      ],
      "stateMutability": "view",
      "type": "function"
    },
    {
      "inputs": [],
      "name": "renounceOwnership",
      "outputs": [],
      "stateMutability": "nonpayable",
      "type": "function"
    },
    {
      "inputs": [
        {
          "internalType": "uint24",
          "name": "",
          "type": "uint24"
        }
      ],
      "name": "roundInfos",
      "outputs": [
        {
          "internalType": "string",
          "name": "question",
          "type": "string"
        },
        {
          "internalType": "string",
          "name": "encryptedAnswer",
          "type": "string"
        },
        {
          "internalType": "uint24",
          "name": "attendance",
          "type": "uint24"
        },
        {
          "internalType": "string",
          "name": "answer",
          "type": "string"
        },
        {
          "internalType": "uint256",
          "name": "prize",
          "type": "uint256"
        },
        {
          "internalType": "bool",
          "name": "platformFeeTransferred",
          "type": "bool"
        }
      ],
      "stateMutability": "view",
      "type": "function"
    },
    {
      "inputs": [
        {
          "internalType": "uint24",
          "name": "",
          "type": "uint24"
        },
        {
          "internalType": "address",
          "name": "",
          "type": "address"
        }
      ],
      "name": "roundUserInfos",
      "outputs": [
        {
          "internalType": "bool",
          "name": "isAnswered",
          "type": "bool"
        },
        {
          "internalType": "string",
          "name": "encryptedAnswer",
          "type": "string"
        },
        {
          "internalType": "uint256",
          "name": "prize",
          "type": "uint256"
        }
      ],
      "stateMutability": "view",
      "type": "function"
    },
    {
      "inputs": [
        {
          "internalType": "uint24",
          "name": "_newMinAttendance",
          "type": "uint24"
        }
      ],
      "name": "setMinAttendance",
      "outputs": [],
      "stateMutability": "nonpayable",
      "type": "function"
    },
    {
      "inputs": [],
      "name": "startTimestamp",
      "outputs": [
        {
          "internalType": "uint256",
          "name": "",
          "type": "uint256"
        }
      ],
      "stateMutability": "view",
      "type": "function"
    },
    {
      "inputs": [
        {
          "internalType": "string",
          "name": "_encryptedAnswer",
          "type": "string"
        }
      ],
      "name": "submitAnswer",
      "outputs": [],
      "stateMutability": "nonpayable",
      "type": "function"
    },
    {
      "inputs": [
        {
          "internalType": "address",
          "name": "newOwner",
          "type": "address"
        }
      ],
      "name": "transferOwnership",
      "outputs": [],
      "stateMutability": "nonpayable",
      "type": "function"
    },
    {
      "inputs": [],
      "name": "usdtContract",
      "outputs": [
        {
          "internalType": "contract IERC20",
          "name": "",
          "type": "address"
        }
      ],
      "stateMutability": "view",
      "type": "function"
    }
  ],
  "transactionHash": "0x22737ce2f7304b55d43483ec11630d1c3bf8716bd884569bb93f9666df2fcc06",
  "args": [
    "1?",
    "IyDaO/UoqldgeNk29VCJ1hbDP3JSh7N/oxsBv+BQL5Dl0xfrMm91P8hNaMq+zRvB8gsyyE754u/x9wQ1xC9TycE0MyRlPaNkWGIYN+2cFtrCTNQrXUJXtyKOop4AVd50/nHcHTthHGHd4XY4j2ZzTcin3WWmYEIkKjx2+syiIRWRzar+o1ap6DFLHUmxDkCIPUofOdiUNugp46qmz8Hno9cONgDCiSk4NF0+USiR9UKbvAPBZ0fTnvpj9Jnr87XZ1RsfEObp2Vwj9WqxufzjgUOa/gOW6WfrpDqfi3zVlwmOx0GcBODLyEv1o43Fly3plt95WlPvhGLGDobe3UzO8A==",
    "0x26BE7741aC4aa5C7bA5eBAFE02c1b8503118B6d9",
    9
  ],
  "numDeployments": 1,
  "solcInputHash": "e6b9bd0911bd0b0fdc35d8e2d6da056c",
  "bytecode": "0x60806040526005805465ffffff0000001916630200000017905560068054737b941952696dc372628e06ee129cc141957884756001600160a01b031991821681179092556007805490911690911790553480156200005c57600080fd5b506040516200223a3803806200223a8339810160408190526200007f9162000287565b60016000556200008f3362000170565b60058054600160301b600160d01b03191666010000000000006001600160a01b03851602179055620000c381600a62000442565b6003554260025560055462ffffff166000908152600860205260409020620000ec8582620004e9565b5060055462ffffff166000908152600860205260409020600101620001128482620004e9565b5060055462ffffff166000818152600860205260409081902090514292917fce1a9957d155138ccc730d10951eac4bf1efd837be7e1d422d058a5c39ffdd67916200015e91906200063a565b60405180910390a350505050620006c8565b600180546001600160a01b038381166001600160a01b0319831681179093556040519116919082907f8be0079c531659141344cd1fd0a4f28419497f9722a3daafe3b4186f6b6457e090600090a35050565b634e487b7160e01b600052604160045260246000fd5b600082601f830112620001ea57600080fd5b81516001600160401b0380821115620002075762000207620001c2565b604051601f8301601f19908116603f01168101908282118183101715620002325762000232620001c2565b816040528381526020925086838588010111156200024f57600080fd5b600091505b8382101562000273578582018301518183018401529082019062000254565b600093810190920192909252949350505050565b600080600080608085870312156200029e57600080fd5b84516001600160401b0380821115620002b657600080fd5b620002c488838901620001d8565b95506020870151915080821115620002db57600080fd5b50620002ea87828801620001d8565b604087015190945090506001600160a01b03811681146200030a57600080fd5b606086015190925060ff811681146200032257600080fd5b939692955090935050565b634e487b7160e01b600052601160045260246000fd5b600181815b80851115620003845781600019048211156200036857620003686200032d565b808516156200037657918102915b93841c939080029062000348565b509250929050565b6000826200039d575060016200043c565b81620003ac575060006200043c565b8160018114620003c55760028114620003d057620003f0565b60019150506200043c565b60ff841115620003e457620003e46200032d565b50506001821b6200043c565b5060208310610133831016604e8410600b841016171562000415575081810a6200043c565b62000421838362000343565b80600019048211156200043857620004386200032d565b0290505b92915050565b60006200045360ff8416836200038c565b9392505050565b600181811c908216806200046f57607f821691505b6020821081036200049057634e487b7160e01b600052602260045260246000fd5b50919050565b601f821115620004e457600081815260208120601f850160051c81016020861015620004bf5750805b601f850160051c820191505b81811015620004e057828155600101620004cb565b5050505b505050565b81516001600160401b03811115620005055762000505620001c2565b6200051d816200051684546200045a565b8462000496565b602080601f8311600181146200055557600084156200053c5750858301515b600019600386901b1c1916600185901b178555620004e0565b600085815260208120601f198616915b82811015620005865788860151825594840194600190910190840162000565565b5085821015620005a55787850151600019600388901b60f8161c191681555b5050505050600190811b01905550565b60008154620005c4816200045a565b808552602060018381168015620005e45760018114620005ff576200062f565b60ff1985168884015283151560051b8801830195506200062f565b866000528260002060005b85811015620006275781548a82018601529083019084016200060a565b890184019650505b505050505092915050565b6020815260c0602082015260006200065660e0830184620005b5565b601f1980848303016040850152620006728260018701620005b5565b915062ffffff600286015416606085015280848303016080850152506200069d8160038601620005b5565b9050600484015460a084015260ff600585015416620006c060c085018215159052565b509392505050565b611b6280620006d86000396000f3fe608060405234801561001057600080fd5b506004361061010b5760003560e01c806387c20b33116100a2578063bb3e315911610071578063bb3e31591461023c578063bf72b6a41461024f578063d3b76d2914610262578063e6fd48bc14610278578063f2fde38b1461028157600080fd5b806387c20b33146101ec5780638da5cb5b146101ff5780639cbe5efd14610210578063b74ce10e1461023357600080fd5b806361220c99116100de57806361220c99146101a9578063715018a6146101be57806374a06694146101c65780637d232f74146101d957600080fd5b8063374c9b4814610110578063419759f51461013b5780635f6ef272146101525780636115092314610177575b600080fd5b61012361011e3660046114a9565b610294565b60405161013293929190611522565b60405180910390f35b61014460035481565b604051908152602001610132565b61016561016036600461154d565b61034e565b6040516101329695949392919061156f565b60055461019190600160301b90046001600160a01b031681565b6040516001600160a01b039091168152602001610132565b6101bc6101b736600461154d565b610529565b005b6101bc6105c0565b600754610191906001600160a01b031681565b6101bc6101e7366004611610565b6105d4565b600654610191906001600160a01b031681565b6001546001600160a01b0316610191565b60055461021f9062ffffff1681565b60405162ffffff9091168152602001610132565b61014460045481565b6101bc61024a3660046116aa565b6107a6565b6101bc61025d3660046116ec565b610a1f565b60055461021f906301000000900462ffffff1681565b61014460025481565b6101bc61028f366004611756565b610c57565b60096020908152600092835260408084209091529082529020805460018201805460ff90921692916102c590611771565b80601f01602080910402602001604051908101604052809291908181526020018280546102f190611771565b801561033e5780601f106103135761010080835404028352916020019161033e565b820191906000526020600020905b81548152906001019060200180831161032157829003601f168201915b5050505050908060020154905083565b60086020526000908152604090208054819061036990611771565b80601f016020809104026020016040519081016040528092919081815260200182805461039590611771565b80156103e25780601f106103b7576101008083540402835291602001916103e2565b820191906000526020600020905b8154815290600101906020018083116103c557829003601f168201915b5050505050908060010180546103f790611771565b80601f016020809104026020016040519081016040528092919081815260200182805461042390611771565b80156104705780601f1061044557610100808354040283529160200191610470565b820191906000526020600020905b81548152906001019060200180831161045357829003601f168201915b5050506002840154600385018054949562ffffff90921694919350915061049690611771565b80601f01602080910402602001604051908101604052809291908181526020018280546104c290611771565b801561050f5780601f106104e45761010080835404028352916020019161050f565b820191906000526020600020905b8154815290600101906020018083116104f257829003601f168201915b50505050600483015460059093015491929160ff16905086565b610531610cd0565b60008162ffffff161161059c5760405162461bcd60e51b815260206004820152602860248201527f4d696e696d756d20617474656e64616e63652073686f756c64206265206d6f72604482015267065207468616e20360c41b60648201526084015b60405180910390fd5b6005805462ffffff90921663010000000265ffffff00000019909216919091179055565b6105c8610cd0565b6105d26000610d2a565b565b6105dc610cd0565b6002546105ec90620151806117c1565b42101561063b5760405162461bcd60e51b815260206004820152601b60248201527f4e6f742066696e69736865642070726576696f757320726f756e6400000000006044820152606401610593565b42600290815560055462ffffff808216600090815260086020526040902090920154630100000090910482169116111561074d5760055462ffffff166000908152600860205260408120600490810154815490929061069b9084906117c1565b909155505060055462ffffff1660009081526008602052604090206003016106c4828483611838565b506005546106d69062ffffff16610d7c565b6005805462ffffff169060006106eb836118f9565b82546101009290920a62ffffff8181021990931691831602179091556005541660009081526008602052604090206001019050610729848683611838565b5060055462ffffff16600090815260086020526040902061074b868883611838565b505b60055462ffffff166000818152600860205260409081902090514292917fce1a9957d155138ccc730d10951eac4bf1efd837be7e1d422d058a5c39ffdd67916107969190611998565b60405180910390a3505050505050565b6107ae610f0c565b6002546107be90620151806117c1565b4211806107e657506078600254620151806107d991906117c1565b6107e39190611a17565b42105b1561080457604051631450077d60e21b815260040160405180910390fd5b60055462ffffff16600090815260096020908152604080832033845290915290205460ff16156108765760405162461bcd60e51b815260206004820152601f60248201527f416c726561647920616e73776572656420666f72207468697320726f756e64006044820152606401610593565b6005546003546040516323b872dd60e01b81523360048201523060248201526044810191909152600160301b9091046001600160a01b0316906323b872dd906064016020604051808303816000875af11580156108d7573d6000803e3d6000fd5b505050506040513d601f19601f820116820180604052508101906108fb9190611a2a565b5060035460055462ffffff16600090815260086020526040812060040180549091906109289084906117c1565b909155505060055462ffffff908116600090815260086020526040812060020180549092169190610958836118f9565b82546101009290920a62ffffff818102199093169183160217909155600554166000908152600960209081526040808320338452909152902060010190506109a1828483611838565b506005805462ffffff908116600090815260096020908152604080832033808552925291829020805460ff19166001179055925490519116907fabf1365661f4189ee8cad69b4a07c2a628eb579f374248fd45d9bca5386d722590610a099086908690611a4c565b60405180910390a3610a1b6001600055565b5050565b610a27610f0c565b610a32848484610f65565b610a7e5760405162461bcd60e51b815260206004820152601860248201527f57726f6e67207072697a65206f72207369676e617475726500000000000000006044820152606401610593565b600554600990600090610a989060019062ffffff16611a7b565b62ffffff1681526020808201929092526040908101600090812033825290925290205460ff16610b0a5760405162461bcd60e51b815260206004820152601b60248201527f4e6f7420616e73776572656420666f72207468697320726f756e6400000000006044820152606401610593565b600554600990600090610b249060019062ffffff16611a7b565b62ffffff1681526020808201929092526040908101600090812033825290925290206002015415610b895760405162461bcd60e51b815260206004820152600f60248201526e105b1c9958591e4810db185a5b5959608a1b6044820152606401610593565b6000610b95838361105c565b9050610ba13382611130565b6005548190600990600090610bbd9060019062ffffff16611a7b565b62ffffff1681526020808201929092526040908101600090812033825290925281206002019190915560048054839290610bf8908490611a17565b909155505060055481903390610c159060019062ffffff16611a7b565b62ffffff167f635f9c88f723bc4663c02f15122f9669a80c4f51d05020b0ee5153d774c7de3d60405160405180910390a450610c516001600055565b50505050565b610c5f610cd0565b6001600160a01b038116610cc45760405162461bcd60e51b815260206004820152602660248201527f4f776e61626c653a206e6577206f776e657220697320746865207a65726f206160448201526564647265737360d01b6064820152608401610593565b610ccd81610d2a565b50565b6001546001600160a01b031633146105d25760405162461bcd60e51b815260206004820181905260248201527f4f776e61626c653a2063616c6c6572206973206e6f7420746865206f776e65726044820152606401610593565b600180546001600160a01b038381166001600160a01b0319831681179093556040519116919082907f8be0079c531659141344cd1fd0a4f28419497f9722a3daafe3b4186f6b6457e090600090a35050565b610d84610f0c565b60055462ffffff828116911614610dd25760405162461bcd60e51b8152602060048201526012602482015271139bdd08199a5b9a5cda1959081c9bdd5b9960721b6044820152606401610593565b62ffffff811660009081526008602052604090206005015460ff1615610e2c5760405162461bcd60e51b815260206004820152600f60248201526e105b1c9958591e4818db185a5b5959608a1b6044820152606401610593565b600654600454610e5d916001600160a01b031690606490610e4e906003611a97565b610e589190611aae565b611130565b600754600454610e7f916001600160a01b031690606490610e4e906002611a97565b62ffffff81166000908152600860205260409020600501805460ff19166001179055600454606490610eb290605f611a97565b610ebc9190611aae565b6004819055606490610ecf906005611a97565b610ed99190611aae565b6040517f321cc891f949e8d935c9c8c033b2a018ad00133147fb5cc9b29a49319ecd0ec790600090a2610ccd6001600055565b600260005403610f5e5760405162461bcd60e51b815260206004820152601f60248201527f5265656e7472616e637947756172643a207265656e7472616e742063616c6c006044820152606401610593565b6002600055565b6000808233604051602001610f7b929190611ae6565b6040516020818303038152906040528051906020012090506000610fec826040517f19457468657265756d205369676e6564204d6573736167653a0a3332000000006020820152603c8101829052600090605c01604051602081830303815290604052805190602001209050919050565b905060006110308288888080601f01602080910402602001604051908101604052809392919081815260200183838082843760009201919091525061120392505050565b90506110446001546001600160a01b031690565b6001600160a01b039182169116149695505050505050565b6005546000908190606490600890839061107d9060019062ffffff16611a7b565b62ffffff1681526020810191909152604001600020600401546110a190605f611a97565b6110ab9190611aae565b905060008460028111156110c1576110c1611ad0565b036110e55760646110d3826019611a97565b6110dd9190611aae565b91505061112a565b60018460028111156110f9576110f9611ad0565b0361110b5760646110d3826005611a97565b62ffffff8316606461111e836032611a97565b6110d39190611aae565b505b92915050565b60055460405163a9059cbb60e01b81526001600160a01b03848116600483015260248201849052600092600160301b9004169063a9059cbb906044016020604051808303816000875af115801561118b573d6000803e3d6000fd5b505050506040513d601f19601f820116820180604052508101906111af9190611a2a565b9050806111fe5760405162461bcd60e51b815260206004820152601860248201527f4661696c656420746f207472616e73666572207072697a6500000000000000006044820152606401610593565b505050565b60008060006112128585611227565b9150915061121f8161126c565b509392505050565b600080825160410361125d5760208301516040840151606085015160001a611251878285856113b6565b94509450505050611265565b506000905060025b9250929050565b600081600481111561128057611280611ad0565b036112885750565b600181600481111561129c5761129c611ad0565b036112e95760405162461bcd60e51b815260206004820152601860248201527f45434453413a20696e76616c6964207369676e617475726500000000000000006044820152606401610593565b60028160048111156112fd576112fd611ad0565b0361134a5760405162461bcd60e51b815260206004820152601f60248201527f45434453413a20696e76616c6964207369676e6174757265206c656e677468006044820152606401610593565b600381600481111561135e5761135e611ad0565b03610ccd5760405162461bcd60e51b815260206004820152602260248201527f45434453413a20696e76616c6964207369676e6174757265202773272076616c604482015261756560f01b6064820152608401610593565b6000807f7fffffffffffffffffffffffffffffff5d576e7357a4501ddfe92f46681b20a08311156113ed5750600090506003611471565b6040805160008082526020820180845289905260ff881692820192909252606081018690526080810185905260019060a0016020604051602081039080840390855afa158015611441573d6000803e3d6000fd5b5050604051601f1901519150506001600160a01b03811661146a57600060019250925050611471565b9150600090505b94509492505050565b803562ffffff8116811461148d57600080fd5b919050565b80356001600160a01b038116811461148d57600080fd5b600080604083850312156114bc57600080fd5b6114c58361147a565b91506114d360208401611492565b90509250929050565b6000815180845260005b81811015611502576020818501810151868301820152016114e6565b506000602082860101526020601f19601f83011685010191505092915050565b831515815260606020820152600061153d60608301856114dc565b9050826040830152949350505050565b60006020828403121561155f57600080fd5b6115688261147a565b9392505050565b60c08152600061158260c08301896114dc565b828103602084015261159481896114dc565b905062ffffff8716604084015282810360608401526115b381876114dc565b6080840195909552505090151560a090910152949350505050565b60008083601f8401126115e057600080fd5b50813567ffffffffffffffff8111156115f857600080fd5b60208301915083602082850101111561126557600080fd5b6000806000806000806060878903121561162957600080fd5b863567ffffffffffffffff8082111561164157600080fd5b61164d8a838b016115ce565b9098509650602089013591508082111561166657600080fd5b6116728a838b016115ce565b9096509450604089013591508082111561168b57600080fd5b5061169889828a016115ce565b979a9699509497509295939492505050565b600080602083850312156116bd57600080fd5b823567ffffffffffffffff8111156116d457600080fd5b6116e0858286016115ce565b90969095509350505050565b6000806000806060858703121561170257600080fd5b843567ffffffffffffffff81111561171957600080fd5b611725878288016115ce565b90955093505060208501356003811061173d57600080fd5b915061174b6040860161147a565b905092959194509250565b60006020828403121561176857600080fd5b61156882611492565b600181811c9082168061178557607f821691505b6020821081036117a557634e487b7160e01b600052602260045260246000fd5b50919050565b634e487b7160e01b600052601160045260246000fd5b8082018082111561112a5761112a6117ab565b634e487b7160e01b600052604160045260246000fd5b601f8211156111fe57600081815260208120601f850160051c810160208610156118115750805b601f850160051c820191505b818110156118305782815560010161181d565b505050505050565b67ffffffffffffffff831115611850576118506117d4565b6118648361185e8354611771565b836117ea565b6000601f84116001811461189857600085156118805750838201355b600019600387901b1c1916600186901b1783556118f2565b600083815260209020601f19861690835b828110156118c957868501358255602094850194600190920191016118a9565b50868210156118e65760001960f88860031b161c19848701351681555b505060018560011b0183555b5050505050565b600062ffffff808316818103611911576119116117ab565b6001019392505050565b6000815461192881611771565b808552602060018381168015611945576001811461195f5761198d565b60ff1985168884015283151560051b88018301955061198d565b866000528260002060005b858110156119855781548a820186015290830190840161196a565b890184019650505b505050505092915050565b6020815260c0602082015260006119b260e083018461191b565b601f19808483030160408501526119cc826001870161191b565b915062ffffff600286015416606085015280848303016080850152506119f5816003860161191b565b9050600484015460a084015260ff60058501541661121f60c085018215159052565b8181038181111561112a5761112a6117ab565b600060208284031215611a3c57600080fd5b8151801515811461156857600080fd5b60208152816020820152818360408301376000818301604090810191909152601f909201601f19160101919050565b62ffffff828116828216039080821115611128576111286117ab565b808202811582820484141761112a5761112a6117ab565b600082611acb57634e487b7160e01b600052601260045260246000fd5b500490565b634e487b7160e01b600052602160045260246000fd5b600060038410611b0657634e487b7160e01b600052602160045260246000fd5b5060f89290921b825260601b6bffffffffffffffffffffffff191660018201526015019056fea26469706673582212202179a084bce2b26656be9a5b9a04ab0abb87fea0c80808ee43088129230712dd64736f6c63430008110033",
  "devdoc": {
    "kind": "dev",
    "methods": {
      "claimPrize(bytes,uint8,uint24)": {
        "details": "close prev round and open new one, operated by admin",
        "params": {
          "_players": "the number of players who submitted correct answer(excluding top winners)",
          "_rank": "winner's rank",
          "signature": "signed message with prize and winner address by platform owner"
        }
      },
      "executeRound(string,string,string)": {
        "details": "close prev round and open new one, operated by admin",
        "params": {
          "_answer": "current round's correct answer",
          "_encryptedNextAnswer": "new encrypted answer",
          "_nextQuestion": "new question"
        }
      },
      "owner()": {
        "details": "Returns the address of the current owner."
      },
      "renounceOwnership()": {
        "details": "Leaves the contract without owner. It will not be possible to call `onlyOwner` functions anymore. Can only be called by the current owner. NOTE: Renouncing ownership will leave the contract without an owner, thereby removing any functionality that is only available to the owner."
      },
      "submitAnswer(string)": {
        "details": "encrypted from dapp using public key",
        "params": {
          "_encryptedAnswer": "answer that is submitted by user"
        }
      },
      "transferOwnership(address)": {
        "details": "Transfers ownership of the contract to a new account (`newOwner`). Can only be called by the current owner."
      }
    },
    "version": 1
  },
  "userdoc": {
    "kind": "user",
    "methods": {
      "claimPrize(bytes,uint8,uint24)": {
        "notice": "Function to claim prize"
      },
      "executeRound(string,string,string)": {
        "notice": "Function to finish prev round and start next one, executed by admin(backend)"
      },
      "setMinAttendance(uint24)": {
        "notice": "Function to set minimum number of participants"
      },
      "submitAnswer(string)": {
        "notice": "Function to submit answer from user side"
      }
    },
    "version": 1
  },
  "storageLayout": {
    "storage": [
      {
        "astId": 123,
        "contract": "contracts/DailyPool.sol:DailyPool",
        "label": "_status",
        "offset": 0,
        "slot": "0",
        "type": "t_uint256"
      },
      {
        "astId": 7,
        "contract": "contracts/DailyPool.sol:DailyPool",
        "label": "_owner",
        "offset": 0,
        "slot": "1",
        "type": "t_address"
      },
      {
        "astId": 2294,
        "contract": "contracts/DailyPool.sol:DailyPool",
        "label": "startTimestamp",
        "offset": 0,
        "slot": "2",
        "type": "t_uint256"
      },
      {
        "astId": 2296,
        "contract": "contracts/DailyPool.sol:DailyPool",
        "label": "depositAmount",
        "offset": 0,
        "slot": "3",
        "type": "t_uint256"
      },
      {
        "astId": 2298,
        "contract": "contracts/DailyPool.sol:DailyPool",
        "label": "lockedPoolAmount",
        "offset": 0,
        "slot": "4",
        "type": "t_uint256"
      },
      {
        "astId": 2300,
        "contract": "contracts/DailyPool.sol:DailyPool",
        "label": "currentRoundId",
        "offset": 0,
        "slot": "5",
        "type": "t_uint24"
      },
      {
        "astId": 2303,
        "contract": "contracts/DailyPool.sol:DailyPool",
        "label": "minAttendance",
        "offset": 3,
        "slot": "5",
        "type": "t_uint24"
      },
      {
        "astId": 2306,
        "contract": "contracts/DailyPool.sol:DailyPool",
        "label": "usdtContract",
        "offset": 6,
        "slot": "5",
        "type": "t_contract(IERC20)831"
      },
      {
        "astId": 2309,
        "contract": "contracts/DailyPool.sol:DailyPool",
        "label": "daoMsigAddress",
        "offset": 0,
        "slot": "6",
        "type": "t_address"
      },
      {
        "astId": 2312,
        "contract": "contracts/DailyPool.sol:DailyPool",
        "label": "donationMsigAddress",
        "offset": 0,
        "slot": "7",
        "type": "t_address"
      },
      {
        "astId": 2341,
        "contract": "contracts/DailyPool.sol:DailyPool",
        "label": "roundInfos",
        "offset": 0,
        "slot": "8",
        "type": "t_mapping(t_uint24,t_struct(RoundInfo)2325_storage)"
      },
      {
        "astId": 2348,
        "contract": "contracts/DailyPool.sol:DailyPool",
        "label": "roundUserInfos",
        "offset": 0,
        "slot": "9",
        "type": "t_mapping(t_uint24,t_mapping(t_address,t_struct(UserInfo)2332_storage))"
      }
    ],
    "types": {
      "t_address": {
        "encoding": "inplace",
        "label": "address",
        "numberOfBytes": "20"
      },
      "t_bool": {
        "encoding": "inplace",
        "label": "bool",
        "numberOfBytes": "1"
      },
      "t_contract(IERC20)831": {
        "encoding": "inplace",
        "label": "contract IERC20",
        "numberOfBytes": "20"
      },
      "t_mapping(t_address,t_struct(UserInfo)2332_storage)": {
        "encoding": "mapping",
        "key": "t_address",
        "label": "mapping(address => struct DailyPool.UserInfo)",
        "numberOfBytes": "32",
        "value": "t_struct(UserInfo)2332_storage"
      },
      "t_mapping(t_uint24,t_mapping(t_address,t_struct(UserInfo)2332_storage))": {
        "encoding": "mapping",
        "key": "t_uint24",
        "label": "mapping(uint24 => mapping(address => struct DailyPool.UserInfo))",
        "numberOfBytes": "32",
        "value": "t_mapping(t_address,t_struct(UserInfo)2332_storage)"
      },
      "t_mapping(t_uint24,t_struct(RoundInfo)2325_storage)": {
        "encoding": "mapping",
        "key": "t_uint24",
        "label": "mapping(uint24 => struct DailyPool.RoundInfo)",
        "numberOfBytes": "32",
        "value": "t_struct(RoundInfo)2325_storage"
      },
      "t_string_storage": {
        "encoding": "bytes",
        "label": "string",
        "numberOfBytes": "32"
      },
      "t_struct(RoundInfo)2325_storage": {
        "encoding": "inplace",
        "label": "struct DailyPool.RoundInfo",
        "members": [
          {
            "astId": 2314,
            "contract": "contracts/DailyPool.sol:DailyPool",
            "label": "question",
            "offset": 0,
            "slot": "0",
            "type": "t_string_storage"
          },
          {
            "astId": 2316,
            "contract": "contracts/DailyPool.sol:DailyPool",
            "label": "encryptedAnswer",
            "offset": 0,
            "slot": "1",
            "type": "t_string_storage"
          },
          {
            "astId": 2318,
            "contract": "contracts/DailyPool.sol:DailyPool",
            "label": "attendance",
            "offset": 0,
            "slot": "2",
            "type": "t_uint24"
          },
          {
            "astId": 2320,
            "contract": "contracts/DailyPool.sol:DailyPool",
            "label": "answer",
            "offset": 0,
            "slot": "3",
            "type": "t_string_storage"
          },
          {
            "astId": 2322,
            "contract": "contracts/DailyPool.sol:DailyPool",
            "label": "prize",
            "offset": 0,
            "slot": "4",
            "type": "t_uint256"
          },
          {
            "astId": 2324,
            "contract": "contracts/DailyPool.sol:DailyPool",
            "label": "platformFeeTransferred",
            "offset": 0,
            "slot": "5",
            "type": "t_bool"
          }
        ],
        "numberOfBytes": "192"
      },
      "t_struct(UserInfo)2332_storage": {
        "encoding": "inplace",
        "label": "struct DailyPool.UserInfo",
        "members": [
          {
            "astId": 2327,
            "contract": "contracts/DailyPool.sol:DailyPool",
            "label": "isAnswered",
            "offset": 0,
            "slot": "0",
            "type": "t_bool"
          },
          {
            "astId": 2329,
            "contract": "contracts/DailyPool.sol:DailyPool",
            "label": "encryptedAnswer",
            "offset": 0,
            "slot": "1",
            "type": "t_string_storage"
          },
          {
            "astId": 2331,
            "contract": "contracts/DailyPool.sol:DailyPool",
            "label": "prize",
            "offset": 0,
            "slot": "2",
            "type": "t_uint256"
          }
        ],
        "numberOfBytes": "96"
      },
      "t_uint24": {
        "encoding": "inplace",
        "label": "uint24",
        "numberOfBytes": "3"
      },
      "t_uint256": {
        "encoding": "inplace",
        "label": "uint256",
        "numberOfBytes": "32"
      }
    }
  }
}