{
  "address": "0xE5A143a9467889829bdeeab86aEfcD14031eD301",
  "abi": [
    {
      "inputs": [
        {
          "internalType": "string",
          "name": "_firstQuestion",
          "type": "string"
        },
        {
          "internalType": "string",
          "name": "_encryptedAnswer",
          "type": "string"
        },
        {
          "internalType": "address",
          "name": "_usdtContractAddress",
          "type": "address"
        },
        {
          "internalType": "uint8",
          "name": "_tokenDecimal",
          "type": "uint8"
        }
      ],
      "stateMutability": "nonpayable",
      "type": "constructor"
    },
    {
      "inputs": [],
      "name": "NotAnswerTime",
      "type": "error"
    },
    {
      "anonymous": false,
      "inputs": [
        {
          "indexed": true,
          "internalType": "uint24",
          "name": "roundId",
          "type": "uint24"
        },
        {
          "indexed": true,
          "internalType": "address",
          "name": "respondent",
          "type": "address"
        },
        {
          "indexed": false,
          "internalType": "string",
          "name": "answer",
          "type": "string"
        }
      ],
      "name": "AnswerSubmitted",
      "type": "event"
    },
    {
      "anonymous": false,
      "inputs": [
        {
          "indexed": true,
          "internalType": "uint24",
          "name": "roundId",
          "type": "uint24"
        },
        {
          "components": [
            {
              "internalType": "string",
              "name": "question",
              "type": "string"
            },
            {
              "internalType": "string",
              "name": "encryptedAnswer",
              "type": "string"
            },
            {
              "internalType": "uint24",
              "name": "attendance",
              "type": "uint24"
            },
            {
              "internalType": "string",
              "name": "answer",
              "type": "string"
            },
            {
              "internalType": "uint256",
              "name": "prize",
              "type": "uint256"
            },
            {
              "internalType": "bool",
              "name": "platformFeeTransferred",
              "type": "bool"
            }
          ],
          "indexed": false,
          "internalType": "struct DailyPool.RoundInfo",
          "name": "roundInfo",
          "type": "tuple"
        },
        {
          "indexed": true,
          "internalType": "uint256",
          "name": "startTimestamp",
          "type": "uint256"
        }
      ],
      "name": "NewRoundOpened",
      "type": "event"
    },
    {
      "anonymous": false,
      "inputs": [
        {
          "indexed": true,
          "internalType": "address",
          "name": "previousOwner",
          "type": "address"
        },
        {
          "indexed": true,
          "internalType": "address",
          "name": "newOwner",
          "type": "address"
        }
      ],
      "name": "OwnershipTransferred",
      "type": "event"
    },
    {
      "anonymous": false,
      "inputs": [
        {
          "indexed": true,
          "internalType": "uint256",
          "name": "amount",
          "type": "uint256"
        }
      ],
      "name": "PlatformFeeTransferred",
      "type": "event"
    },
    {
      "anonymous": false,
      "inputs": [
        {
          "indexed": true,
          "internalType": "uint24",
          "name": "roundId",
          "type": "uint24"
        },
        {
          "indexed": true,
          "internalType": "address",
          "name": "winner",
          "type": "address"
        },
        {
          "indexed": true,
          "internalType": "uint256",
          "name": "prize",
          "type": "uint256"
        }
      ],
      "name": "PrizeClaimed",
      "type": "event"
    },
    {
      "inputs": [
        {
          "internalType": "bytes",
          "name": "signature",
          "type": "bytes"
        },
        {
          "internalType": "enum DailyPool.RANK",
          "name": "_rank",
          "type": "uint8"
        },
        {
          "internalType": "uint24",
          "name": "_players",
          "type": "uint24"
        }
      ],
      "name": "claimPrize",
      "outputs": [],
      "stateMutability": "nonpayable",
      "type": "function"
    },
    {
      "inputs": [],
      "name": "currentRoundId",
      "outputs": [
        {
          "internalType": "uint24",
          "name": "",
          "type": "uint24"
        }
      ],
      "stateMutability": "view",
      "type": "function"
    },
    {
      "inputs": [],
      "name": "daoMsigAddress",
      "outputs": [
        {
          "internalType": "address",
          "name": "",
          "type": "address"
        }
      ],
      "stateMutability": "view",
      "type": "function"
    },
    {
      "inputs": [],
      "name": "depositAmount",
      "outputs": [
        {
          "internalType": "uint256",
          "name": "",
          "type": "uint256"
        }
      ],
      "stateMutability": "view",
      "type": "function"
    },
    {
      "inputs": [],
      "name": "donationMsigAddress",
      "outputs": [
        {
          "internalType": "address",
          "name": "",
          "type": "address"
        }
      ],
      "stateMutability": "view",
      "type": "function"
    },
    {
      "inputs": [
        {
          "internalType": "string",
          "name": "_nextQuestion",
          "type": "string"
        },
        {
          "internalType": "string",
          "name": "_encryptedNextAnswer",
          "type": "string"
        },
        {
          "internalType": "string",
          "name": "_answer",
          "type": "string"
        }
      ],
      "name": "executeRound",
      "outputs": [],
      "stateMutability": "nonpayable",
      "type": "function"
    },
    {
      "inputs": [],
      "name": "lockedPoolAmount",
      "outputs": [
        {
          "internalType": "uint256",
          "name": "",
          "type": "uint256"
        }
      ],
      "stateMutability": "view",
      "type": "function"
    },
    {
      "inputs": [],
      "name": "minAttendance",
      "outputs": [
        {
          "internalType": "uint24",
          "name": "",
          "type": "uint24"
        }
      ],
      "stateMutability": "view",
      "type": "function"
    },
    {
      "inputs": [],
      "name": "owner",
      "outputs": [
        {
          "internalType": "address",
          "name": "",
          "type": "address"
        }
      ],
      "stateMutability": "view",
      "type": "function"
    },
    {
      "inputs": [],
      "name": "renounceOwnership",
      "outputs": [],
      "stateMutability": "nonpayable",
      "type": "function"
    },
    {
      "inputs": [
        {
          "internalType": "uint24",
          "name": "",
          "type": "uint24"
        }
      ],
      "name": "roundInfos",
      "outputs": [
        {
          "internalType": "string",
          "name": "question",
          "type": "string"
        },
        {
          "internalType": "string",
          "name": "encryptedAnswer",
          "type": "string"
        },
        {
          "internalType": "uint24",
          "name": "attendance",
          "type": "uint24"
        },
        {
          "internalType": "string",
          "name": "answer",
          "type": "string"
        },
        {
          "internalType": "uint256",
          "name": "prize",
          "type": "uint256"
        },
        {
          "internalType": "bool",
          "name": "platformFeeTransferred",
          "type": "bool"
        }
      ],
      "stateMutability": "view",
      "type": "function"
    },
    {
      "inputs": [
        {
          "internalType": "uint24",
          "name": "",
          "type": "uint24"
        },
        {
          "internalType": "address",
          "name": "",
          "type": "address"
        }
      ],
      "name": "roundUserInfos",
      "outputs": [
        {
          "internalType": "bool",
          "name": "isAnswered",
          "type": "bool"
        },
        {
          "internalType": "string",
          "name": "encryptedAnswer",
          "type": "string"
        },
        {
          "internalType": "uint256",
          "name": "prize",
          "type": "uint256"
        }
      ],
      "stateMutability": "view",
      "type": "function"
    },
    {
      "inputs": [
        {
          "internalType": "uint24",
          "name": "_newMinAttendance",
          "type": "uint24"
        }
      ],
      "name": "setMinAttendance",
      "outputs": [],
      "stateMutability": "nonpayable",
      "type": "function"
    },
    {
      "inputs": [],
      "name": "startTimestamp",
      "outputs": [
        {
          "internalType": "uint256",
          "name": "",
          "type": "uint256"
        }
      ],
      "stateMutability": "view",
      "type": "function"
    },
    {
      "inputs": [
        {
          "internalType": "string",
          "name": "_encryptedAnswer",
          "type": "string"
        }
      ],
      "name": "submitAnswer",
      "outputs": [],
      "stateMutability": "nonpayable",
      "type": "function"
    },
    {
      "inputs": [
        {
          "internalType": "address",
          "name": "newOwner",
          "type": "address"
        }
      ],
      "name": "transferOwnership",
      "outputs": [],
      "stateMutability": "nonpayable",
      "type": "function"
    },
    {
      "inputs": [],
      "name": "usdtContract",
      "outputs": [
        {
          "internalType": "contract IERC20",
          "name": "",
          "type": "address"
        }
      ],
      "stateMutability": "view",
      "type": "function"
    }
  ],
  "transactionHash": "0xd5c7a8abfc30b4d18b8b213d96cf7c3cbb4fca8ad33e022dbf3bbec9a4487520",
  "args": [
    "1?",
    "THDeQqyc86uNOEDzLOWtXTlCuRXKrcDiOIWSIiK58skVzhXh08At1IiN81W9n6uB/bEhzbcvJuDez1xyMJonpTDRQB5ogfgaOhKdzaGHFz9sQZUpL8HZaP5d2RW6HOLMS92CnMSZTeiJ+/DKPqFZX7WiXu2h86eso9fYR4v4rjG6AWNJWoSV5bp/SnTvvMT6q9aZJn0FmEP+nS+abyyHqtI8+TXSSS7pyR+3TxtVx42Pi9D18/EYfc/e4fTej0MQfv80ogZdMC9vWfRmOVfYtWB3iP72ANGuqyRWrs6SR50sbrijbNLeJyMDM7TpapDovLNxRqMBP/Cc3TSShUNZ0w==",
    "0x8cDc8c7a027f18503f4A7C24e4b7488B08A56223",
    9
  ],
  "numDeployments": 10,
  "solcInputHash": "9d33c06b18576b6d0066f9ea5f2bf4db",
  "bytecode": "0x60806040526005805465ffffff0000001916630200000017905560068054737b941952696dc372628e06ee129cc141957884756001600160a01b031991821681179092556007805490911690911790553480156200005c57600080fd5b50604051620021d1380380620021d18339810160408190526200007f9162000287565b60016000556200008f3362000170565b60058054600160301b600160d01b03191666010000000000006001600160a01b03851602179055620000c381600a62000442565b6003554260025560055462ffffff166000908152600860205260409020620000ec8582620004e9565b5060055462ffffff166000908152600860205260409020600101620001128482620004e9565b5060055462ffffff166000818152600860205260409081902090514292917fce1a9957d155138ccc730d10951eac4bf1efd837be7e1d422d058a5c39ffdd67916200015e91906200063a565b60405180910390a350505050620006c8565b600180546001600160a01b038381166001600160a01b0319831681179093556040519116919082907f8be0079c531659141344cd1fd0a4f28419497f9722a3daafe3b4186f6b6457e090600090a35050565b634e487b7160e01b600052604160045260246000fd5b600082601f830112620001ea57600080fd5b81516001600160401b0380821115620002075762000207620001c2565b604051601f8301601f19908116603f01168101908282118183101715620002325762000232620001c2565b816040528381526020925086838588010111156200024f57600080fd5b600091505b8382101562000273578582018301518183018401529082019062000254565b600093810190920192909252949350505050565b600080600080608085870312156200029e57600080fd5b84516001600160401b0380821115620002b657600080fd5b620002c488838901620001d8565b95506020870151915080821115620002db57600080fd5b50620002ea87828801620001d8565b604087015190945090506001600160a01b03811681146200030a57600080fd5b606086015190925060ff811681146200032257600080fd5b939692955090935050565b634e487b7160e01b600052601160045260246000fd5b600181815b80851115620003845781600019048211156200036857620003686200032d565b808516156200037657918102915b93841c939080029062000348565b509250929050565b6000826200039d575060016200043c565b81620003ac575060006200043c565b8160018114620003c55760028114620003d057620003f0565b60019150506200043c565b60ff841115620003e457620003e46200032d565b50506001821b6200043c565b5060208310610133831016604e8410600b841016171562000415575081810a6200043c565b62000421838362000343565b80600019048211156200043857620004386200032d565b0290505b92915050565b60006200045360ff8416836200038c565b9392505050565b600181811c908216806200046f57607f821691505b6020821081036200049057634e487b7160e01b600052602260045260246000fd5b50919050565b601f821115620004e457600081815260208120601f850160051c81016020861015620004bf5750805b601f850160051c820191505b81811015620004e057828155600101620004cb565b5050505b505050565b81516001600160401b03811115620005055762000505620001c2565b6200051d816200051684546200045a565b8462000496565b602080601f8311600181146200055557600084156200053c5750858301515b600019600386901b1c1916600185901b178555620004e0565b600085815260208120601f198616915b82811015620005865788860151825594840194600190910190840162000565565b5085821015620005a55787850151600019600388901b60f8161c191681555b5050505050600190811b01905550565b60008154620005c4816200045a565b808552602060018381168015620005e45760018114620005ff576200062f565b60ff1985168884015283151560051b8801830195506200062f565b866000528260002060005b85811015620006275781548a82018601529083019084016200060a565b890184019650505b505050505092915050565b6020815260c0602082015260006200065660e0830184620005b5565b601f1980848303016040850152620006728260018701620005b5565b915062ffffff600286015416606085015280848303016080850152506200069d8160038601620005b5565b9050600484015460a084015260ff600585015416620006c060c085018215159052565b509392505050565b611af980620006d86000396000f3fe608060405234801561001057600080fd5b506004361061010b5760003560e01c806387c20b33116100a2578063bb3e315911610071578063bb3e31591461023c578063bf72b6a41461024f578063d3b76d2914610262578063e6fd48bc14610278578063f2fde38b1461028157600080fd5b806387c20b33146101ec5780638da5cb5b146101ff5780639cbe5efd14610210578063b74ce10e1461023357600080fd5b806361220c99116100de57806361220c99146101a9578063715018a6146101be57806374a06694146101c65780637d232f74146101d957600080fd5b8063374c9b4814610110578063419759f51461013b5780635f6ef272146101525780636115092314610177575b600080fd5b61012361011e366004611440565b610294565b604051610132939291906114b9565b60405180910390f35b61014460035481565b604051908152602001610132565b6101656101603660046114e4565b61034e565b60405161013296959493929190611506565b60055461019190600160301b90046001600160a01b031681565b6040516001600160a01b039091168152602001610132565b6101bc6101b73660046114e4565b610529565b005b6101bc6105c0565b600754610191906001600160a01b031681565b6101bc6101e73660046115a7565b6105d4565b600654610191906001600160a01b031681565b6001546001600160a01b0316610191565b60055461021f9062ffffff1681565b60405162ffffff9091168152602001610132565b61014460045481565b6101bc61024a366004611641565b610793565b6101bc61025d366004611683565b6109b6565b60055461021f906301000000900462ffffff1681565b61014460025481565b6101bc61028f3660046116ed565b610bee565b60096020908152600092835260408084209091529082529020805460018201805460ff90921692916102c590611708565b80601f01602080910402602001604051908101604052809291908181526020018280546102f190611708565b801561033e5780601f106103135761010080835404028352916020019161033e565b820191906000526020600020905b81548152906001019060200180831161032157829003601f168201915b5050505050908060020154905083565b60086020526000908152604090208054819061036990611708565b80601f016020809104026020016040519081016040528092919081815260200182805461039590611708565b80156103e25780601f106103b7576101008083540402835291602001916103e2565b820191906000526020600020905b8154815290600101906020018083116103c557829003601f168201915b5050505050908060010180546103f790611708565b80601f016020809104026020016040519081016040528092919081815260200182805461042390611708565b80156104705780601f1061044557610100808354040283529160200191610470565b820191906000526020600020905b81548152906001019060200180831161045357829003601f168201915b5050506002840154600385018054949562ffffff90921694919350915061049690611708565b80601f01602080910402602001604051908101604052809291908181526020018280546104c290611708565b801561050f5780601f106104e45761010080835404028352916020019161050f565b820191906000526020600020905b8154815290600101906020018083116104f257829003601f168201915b50505050600483015460059093015491929160ff16905086565b610531610c67565b60008162ffffff161161059c5760405162461bcd60e51b815260206004820152602860248201527f4d696e696d756d20617474656e64616e63652073686f756c64206265206d6f72604482015267065207468616e20360c41b60648201526084015b60405180910390fd5b6005805462ffffff90921663010000000265ffffff00000019909216919091179055565b6105c8610c67565b6105d26000610cc1565b565b6105dc610c67565b42600290815560055462ffffff808216600090815260086020526040902090920154630100000090910482169116101561065c5760055462ffffff1660009081526008602052604090206106318688836117a6565b5060055462ffffff1660009081526008602052604090206001016106568486836117a6565b5061073a565b60055462ffffff166000908152600860205260408120600490810154815490929061068890849061187d565b909155505060055462ffffff1660009081526008602052604090206003016106b18284836117a6565b506005546106c39062ffffff16610d13565b6005805462ffffff169060006106d883611890565b82546101009290920a62ffffff81810219909316918316021790915560055416600090815260086020526040902060010190506107168486836117a6565b5060055462ffffff1660009081526008602052604090206107388688836117a6565b505b60055462ffffff166000818152600860205260409081902090514292917fce1a9957d155138ccc730d10951eac4bf1efd837be7e1d422d058a5c39ffdd6791610783919061192f565b60405180910390a3505050505050565b61079b610ea3565b60055462ffffff16600090815260096020908152604080832033845290915290205460ff161561080d5760405162461bcd60e51b815260206004820152601f60248201527f416c726561647920616e73776572656420666f72207468697320726f756e64006044820152606401610593565b6005546003546040516323b872dd60e01b81523360048201523060248201526044810191909152600160301b9091046001600160a01b0316906323b872dd906064016020604051808303816000875af115801561086e573d6000803e3d6000fd5b505050506040513d601f19601f8201168201806040525081019061089291906119ae565b5060035460055462ffffff16600090815260086020526040812060040180549091906108bf90849061187d565b909155505060055462ffffff9081166000908152600860205260408120600201805490921691906108ef83611890565b82546101009290920a62ffffff818102199093169183160217909155600554166000908152600960209081526040808320338452909152902060010190506109388284836117a6565b506005805462ffffff908116600090815260096020908152604080832033808552925291829020805460ff19166001179055925490519116907fabf1365661f4189ee8cad69b4a07c2a628eb579f374248fd45d9bca5386d7225906109a090869086906119d0565b60405180910390a36109b26001600055565b5050565b6109be610ea3565b6109c9848484610efc565b610a155760405162461bcd60e51b815260206004820152601860248201527f57726f6e67207072697a65206f72207369676e617475726500000000000000006044820152606401610593565b600554600990600090610a2f9060019062ffffff166119ff565b62ffffff1681526020808201929092526040908101600090812033825290925290205460ff16610aa15760405162461bcd60e51b815260206004820152601b60248201527f4e6f7420616e73776572656420666f72207468697320726f756e6400000000006044820152606401610593565b600554600990600090610abb9060019062ffffff166119ff565b62ffffff1681526020808201929092526040908101600090812033825290925290206002015415610b205760405162461bcd60e51b815260206004820152600f60248201526e105b1c9958591e4810db185a5b5959608a1b6044820152606401610593565b6000610b2c8383610ff3565b9050610b3833826110c7565b6005548190600990600090610b549060019062ffffff166119ff565b62ffffff1681526020808201929092526040908101600090812033825290925281206002019190915560048054839290610b8f908490611a1b565b909155505060055481903390610bac9060019062ffffff166119ff565b62ffffff167f635f9c88f723bc4663c02f15122f9669a80c4f51d05020b0ee5153d774c7de3d60405160405180910390a450610be86001600055565b50505050565b610bf6610c67565b6001600160a01b038116610c5b5760405162461bcd60e51b815260206004820152602660248201527f4f776e61626c653a206e6577206f776e657220697320746865207a65726f206160448201526564647265737360d01b6064820152608401610593565b610c6481610cc1565b50565b6001546001600160a01b031633146105d25760405162461bcd60e51b815260206004820181905260248201527f4f776e61626c653a2063616c6c6572206973206e6f7420746865206f776e65726044820152606401610593565b600180546001600160a01b038381166001600160a01b0319831681179093556040519116919082907f8be0079c531659141344cd1fd0a4f28419497f9722a3daafe3b4186f6b6457e090600090a35050565b610d1b610ea3565b60055462ffffff828116911614610d695760405162461bcd60e51b8152602060048201526012602482015271139bdd08199a5b9a5cda1959081c9bdd5b9960721b6044820152606401610593565b62ffffff811660009081526008602052604090206005015460ff1615610dc35760405162461bcd60e51b815260206004820152600f60248201526e105b1c9958591e4818db185a5b5959608a1b6044820152606401610593565b600654600454610df4916001600160a01b031690606490610de5906003611a2e565b610def9190611a45565b6110c7565b600754600454610e16916001600160a01b031690606490610de5906002611a2e565b62ffffff81166000908152600860205260409020600501805460ff19166001179055600454606490610e4990605f611a2e565b610e539190611a45565b6004819055606490610e66906005611a2e565b610e709190611a45565b6040517f321cc891f949e8d935c9c8c033b2a018ad00133147fb5cc9b29a49319ecd0ec790600090a2610c646001600055565b600260005403610ef55760405162461bcd60e51b815260206004820152601f60248201527f5265656e7472616e637947756172643a207265656e7472616e742063616c6c006044820152606401610593565b6002600055565b6000808233604051602001610f12929190611a7d565b6040516020818303038152906040528051906020012090506000610f83826040517f19457468657265756d205369676e6564204d6573736167653a0a3332000000006020820152603c8101829052600090605c01604051602081830303815290604052805190602001209050919050565b90506000610fc78288888080601f01602080910402602001604051908101604052809392919081815260200183838082843760009201919091525061119a92505050565b9050610fdb6001546001600160a01b031690565b6001600160a01b039182169116149695505050505050565b600554600090819060649060089083906110149060019062ffffff166119ff565b62ffffff16815260208101919091526040016000206004015461103890605f611a2e565b6110429190611a45565b9050600084600281111561105857611058611a67565b0361107c57606461106a826019611a2e565b6110749190611a45565b9150506110c1565b600184600281111561109057611090611a67565b036110a257606461106a826005611a2e565b62ffffff831660646110b5836032611a2e565b61106a9190611a45565b505b92915050565b60055460405163a9059cbb60e01b81526001600160a01b03848116600483015260248201849052600092600160301b9004169063a9059cbb906044016020604051808303816000875af1158015611122573d6000803e3d6000fd5b505050506040513d601f19601f8201168201806040525081019061114691906119ae565b9050806111955760405162461bcd60e51b815260206004820152601860248201527f4661696c656420746f207472616e73666572207072697a6500000000000000006044820152606401610593565b505050565b60008060006111a985856111be565b915091506111b681611203565b509392505050565b60008082516041036111f45760208301516040840151606085015160001a6111e88782858561134d565b945094505050506111fc565b506000905060025b9250929050565b600081600481111561121757611217611a67565b0361121f5750565b600181600481111561123357611233611a67565b036112805760405162461bcd60e51b815260206004820152601860248201527f45434453413a20696e76616c6964207369676e617475726500000000000000006044820152606401610593565b600281600481111561129457611294611a67565b036112e15760405162461bcd60e51b815260206004820152601f60248201527f45434453413a20696e76616c6964207369676e6174757265206c656e677468006044820152606401610593565b60038160048111156112f5576112f5611a67565b03610c645760405162461bcd60e51b815260206004820152602260248201527f45434453413a20696e76616c6964207369676e6174757265202773272076616c604482015261756560f01b6064820152608401610593565b6000807f7fffffffffffffffffffffffffffffff5d576e7357a4501ddfe92f46681b20a08311156113845750600090506003611408565b6040805160008082526020820180845289905260ff881692820192909252606081018690526080810185905260019060a0016020604051602081039080840390855afa1580156113d8573d6000803e3d6000fd5b5050604051601f1901519150506001600160a01b03811661140157600060019250925050611408565b9150600090505b94509492505050565b803562ffffff8116811461142457600080fd5b919050565b80356001600160a01b038116811461142457600080fd5b6000806040838503121561145357600080fd5b61145c83611411565b915061146a60208401611429565b90509250929050565b6000815180845260005b818110156114995760208185018101518683018201520161147d565b506000602082860101526020601f19601f83011685010191505092915050565b83151581526060602082015260006114d46060830185611473565b9050826040830152949350505050565b6000602082840312156114f657600080fd5b6114ff82611411565b9392505050565b60c08152600061151960c0830189611473565b828103602084015261152b8189611473565b905062ffffff87166040840152828103606084015261154a8187611473565b6080840195909552505090151560a090910152949350505050565b60008083601f84011261157757600080fd5b50813567ffffffffffffffff81111561158f57600080fd5b6020830191508360208285010111156111fc57600080fd5b600080600080600080606087890312156115c057600080fd5b863567ffffffffffffffff808211156115d857600080fd5b6115e48a838b01611565565b909850965060208901359150808211156115fd57600080fd5b6116098a838b01611565565b9096509450604089013591508082111561162257600080fd5b5061162f89828a01611565565b979a9699509497509295939492505050565b6000806020838503121561165457600080fd5b823567ffffffffffffffff81111561166b57600080fd5b61167785828601611565565b90969095509350505050565b6000806000806060858703121561169957600080fd5b843567ffffffffffffffff8111156116b057600080fd5b6116bc87828801611565565b9095509350506020850135600381106116d457600080fd5b91506116e260408601611411565b905092959194509250565b6000602082840312156116ff57600080fd5b6114ff82611429565b600181811c9082168061171c57607f821691505b60208210810361173c57634e487b7160e01b600052602260045260246000fd5b50919050565b634e487b7160e01b600052604160045260246000fd5b601f82111561119557600081815260208120601f850160051c8101602086101561177f5750805b601f850160051c820191505b8181101561179e5782815560010161178b565b505050505050565b67ffffffffffffffff8311156117be576117be611742565b6117d2836117cc8354611708565b83611758565b6000601f84116001811461180657600085156117ee5750838201355b600019600387901b1c1916600186901b178355611860565b600083815260209020601f19861690835b828110156118375786850135825560209485019460019092019101611817565b50868210156118545760001960f88860031b161c19848701351681555b505060018560011b0183555b5050505050565b634e487b7160e01b600052601160045260246000fd5b808201808211156110c1576110c1611867565b600062ffffff8083168181036118a8576118a8611867565b6001019392505050565b600081546118bf81611708565b8085526020600183811680156118dc57600181146118f657611924565b60ff1985168884015283151560051b880183019550611924565b866000528260002060005b8581101561191c5781548a8201860152908301908401611901565b890184019650505b505050505092915050565b6020815260c06020820152600061194960e08301846118b2565b601f198084830301604085015261196382600187016118b2565b915062ffffff6002860154166060850152808483030160808501525061198c81600386016118b2565b9050600484015460a084015260ff6005850154166111b660c085018215159052565b6000602082840312156119c057600080fd5b815180151581146114ff57600080fd5b60208152816020820152818360408301376000818301604090810191909152601f909201601f19160101919050565b62ffffff8281168282160390808211156110bf576110bf611867565b818103818111156110c1576110c1611867565b80820281158282048414176110c1576110c1611867565b600082611a6257634e487b7160e01b600052601260045260246000fd5b500490565b634e487b7160e01b600052602160045260246000fd5b600060038410611a9d57634e487b7160e01b600052602160045260246000fd5b5060f89290921b825260601b6bffffffffffffffffffffffff191660018201526015019056fea26469706673582212209257bbd3f64379323b3bcf1b5f8b369d3c945c0f478cee126d9fcdc8af9e30da64736f6c63430008110033",
  "devdoc": {
    "kind": "dev",
    "methods": {
      "claimPrize(bytes,uint8,uint24)": {
        "details": "close prev round and open new one, operated by admin",
        "params": {
          "_players": "the number of players who submitted correct answer(excluding top winners)",
          "_rank": "winner's rank",
          "signature": "signed message with prize and winner address by platform owner"
        }
      },
      "executeRound(string,string,string)": {
        "details": "close prev round and open new one, operated by admin",
        "params": {
          "_answer": "current round's correct answer",
          "_encryptedNextAnswer": "new encrypted answer",
          "_nextQuestion": "new question"
        }
      },
      "owner()": {
        "details": "Returns the address of the current owner."
      },
      "renounceOwnership()": {
        "details": "Leaves the contract without owner. It will not be possible to call `onlyOwner` functions anymore. Can only be called by the current owner. NOTE: Renouncing ownership will leave the contract without an owner, thereby removing any functionality that is only available to the owner."
      },
      "submitAnswer(string)": {
        "details": "encrypted from dapp using public key",
        "params": {
          "_encryptedAnswer": "answer that is submitted by user"
        }
      },
      "transferOwnership(address)": {
        "details": "Transfers ownership of the contract to a new account (`newOwner`). Can only be called by the current owner."
      }
    },
    "version": 1
  },
  "userdoc": {
    "kind": "user",
    "methods": {
      "claimPrize(bytes,uint8,uint24)": {
        "notice": "Function to claim prize"
      },
      "executeRound(string,string,string)": {
        "notice": "Function to finish prev round and start next one, executed by admin(backend)"
      },
      "setMinAttendance(uint24)": {
        "notice": "Function to set minimum number of participants"
      },
      "submitAnswer(string)": {
        "notice": "Function to submit answer from user side"
      }
    },
    "version": 1
  },
  "storageLayout": {
    "storage": [
      {
        "astId": 123,
        "contract": "contracts/DailyPool.sol:DailyPool",
        "label": "_status",
        "offset": 0,
        "slot": "0",
        "type": "t_uint256"
      },
      {
        "astId": 7,
        "contract": "contracts/DailyPool.sol:DailyPool",
        "label": "_owner",
        "offset": 0,
        "slot": "1",
        "type": "t_address"
      },
      {
        "astId": 1682,
        "contract": "contracts/DailyPool.sol:DailyPool",
        "label": "startTimestamp",
        "offset": 0,
        "slot": "2",
        "type": "t_uint256"
      },
      {
        "astId": 1684,
        "contract": "contracts/DailyPool.sol:DailyPool",
        "label": "depositAmount",
        "offset": 0,
        "slot": "3",
        "type": "t_uint256"
      },
      {
        "astId": 1686,
        "contract": "contracts/DailyPool.sol:DailyPool",
        "label": "lockedPoolAmount",
        "offset": 0,
        "slot": "4",
        "type": "t_uint256"
      },
      {
        "astId": 1688,
        "contract": "contracts/DailyPool.sol:DailyPool",
        "label": "currentRoundId",
        "offset": 0,
        "slot": "5",
        "type": "t_uint24"
      },
      {
        "astId": 1691,
        "contract": "contracts/DailyPool.sol:DailyPool",
        "label": "minAttendance",
        "offset": 3,
        "slot": "5",
        "type": "t_uint24"
      },
      {
        "astId": 1694,
        "contract": "contracts/DailyPool.sol:DailyPool",
        "label": "usdtContract",
        "offset": 6,
        "slot": "5",
        "type": "t_contract(IERC20)244"
      },
      {
        "astId": 1697,
        "contract": "contracts/DailyPool.sol:DailyPool",
        "label": "daoMsigAddress",
        "offset": 0,
        "slot": "6",
        "type": "t_address"
      },
      {
        "astId": 1700,
        "contract": "contracts/DailyPool.sol:DailyPool",
        "label": "donationMsigAddress",
        "offset": 0,
        "slot": "7",
        "type": "t_address"
      },
      {
        "astId": 1729,
        "contract": "contracts/DailyPool.sol:DailyPool",
        "label": "roundInfos",
        "offset": 0,
        "slot": "8",
        "type": "t_mapping(t_uint24,t_struct(RoundInfo)1713_storage)"
      },
      {
        "astId": 1736,
        "contract": "contracts/DailyPool.sol:DailyPool",
        "label": "roundUserInfos",
        "offset": 0,
        "slot": "9",
        "type": "t_mapping(t_uint24,t_mapping(t_address,t_struct(UserInfo)1720_storage))"
      }
    ],
    "types": {
      "t_address": {
        "encoding": "inplace",
        "label": "address",
        "numberOfBytes": "20"
      },
      "t_bool": {
        "encoding": "inplace",
        "label": "bool",
        "numberOfBytes": "1"
      },
      "t_contract(IERC20)244": {
        "encoding": "inplace",
        "label": "contract IERC20",
        "numberOfBytes": "20"
      },
      "t_mapping(t_address,t_struct(UserInfo)1720_storage)": {
        "encoding": "mapping",
        "key": "t_address",
        "label": "mapping(address => struct DailyPool.UserInfo)",
        "numberOfBytes": "32",
        "value": "t_struct(UserInfo)1720_storage"
      },
      "t_mapping(t_uint24,t_mapping(t_address,t_struct(UserInfo)1720_storage))": {
        "encoding": "mapping",
        "key": "t_uint24",
        "label": "mapping(uint24 => mapping(address => struct DailyPool.UserInfo))",
        "numberOfBytes": "32",
        "value": "t_mapping(t_address,t_struct(UserInfo)1720_storage)"
      },
      "t_mapping(t_uint24,t_struct(RoundInfo)1713_storage)": {
        "encoding": "mapping",
        "key": "t_uint24",
        "label": "mapping(uint24 => struct DailyPool.RoundInfo)",
        "numberOfBytes": "32",
        "value": "t_struct(RoundInfo)1713_storage"
      },
      "t_string_storage": {
        "encoding": "bytes",
        "label": "string",
        "numberOfBytes": "32"
      },
      "t_struct(RoundInfo)1713_storage": {
        "encoding": "inplace",
        "label": "struct DailyPool.RoundInfo",
        "members": [
          {
            "astId": 1702,
            "contract": "contracts/DailyPool.sol:DailyPool",
            "label": "question",
            "offset": 0,
            "slot": "0",
            "type": "t_string_storage"
          },
          {
            "astId": 1704,
            "contract": "contracts/DailyPool.sol:DailyPool",
            "label": "encryptedAnswer",
            "offset": 0,
            "slot": "1",
            "type": "t_string_storage"
          },
          {
            "astId": 1706,
            "contract": "contracts/DailyPool.sol:DailyPool",
            "label": "attendance",
            "offset": 0,
            "slot": "2",
            "type": "t_uint24"
          },
          {
            "astId": 1708,
            "contract": "contracts/DailyPool.sol:DailyPool",
            "label": "answer",
            "offset": 0,
            "slot": "3",
            "type": "t_string_storage"
          },
          {
            "astId": 1710,
            "contract": "contracts/DailyPool.sol:DailyPool",
            "label": "prize",
            "offset": 0,
            "slot": "4",
            "type": "t_uint256"
          },
          {
            "astId": 1712,
            "contract": "contracts/DailyPool.sol:DailyPool",
            "label": "platformFeeTransferred",
            "offset": 0,
            "slot": "5",
            "type": "t_bool"
          }
        ],
        "numberOfBytes": "192"
      },
      "t_struct(UserInfo)1720_storage": {
        "encoding": "inplace",
        "label": "struct DailyPool.UserInfo",
        "members": [
          {
            "astId": 1715,
            "contract": "contracts/DailyPool.sol:DailyPool",
            "label": "isAnswered",
            "offset": 0,
            "slot": "0",
            "type": "t_bool"
          },
          {
            "astId": 1717,
            "contract": "contracts/DailyPool.sol:DailyPool",
            "label": "encryptedAnswer",
            "offset": 0,
            "slot": "1",
            "type": "t_string_storage"
          },
          {
            "astId": 1719,
            "contract": "contracts/DailyPool.sol:DailyPool",
            "label": "prize",
            "offset": 0,
            "slot": "2",
            "type": "t_uint256"
          }
        ],
        "numberOfBytes": "96"
      },
      "t_uint24": {
        "encoding": "inplace",
        "label": "uint24",
        "numberOfBytes": "3"
      },
      "t_uint256": {
        "encoding": "inplace",
        "label": "uint256",
        "numberOfBytes": "32"
      }
    }
  }
}